{
  "_format": "hh-sol-artifact-1",
  "contractName": "DigitalNoMadNFTV5",
  "sourceName": "contracts/digitalNoMadNFTV5.sol",
  "abi": [
    {
      "inputs": [],
      "stateMutability": "nonpayable",
      "type": "constructor"
    },
    {
      "anonymous": false,
      "inputs": [
        {
          "indexed": true,
          "internalType": "address",
          "name": "owner",
          "type": "address"
        },
        {
          "indexed": true,
          "internalType": "address",
          "name": "approved",
          "type": "address"
        },
        {
          "indexed": true,
          "internalType": "uint256",
          "name": "tokenId",
          "type": "uint256"
        }
      ],
      "name": "Approval",
      "type": "event"
    },
    {
      "anonymous": false,
      "inputs": [
        {
          "indexed": true,
          "internalType": "address",
          "name": "owner",
          "type": "address"
        },
        {
          "indexed": true,
          "internalType": "address",
          "name": "operator",
          "type": "address"
        },
        {
          "indexed": false,
          "internalType": "bool",
          "name": "approved",
          "type": "bool"
        }
      ],
      "name": "ApprovalForAll",
      "type": "event"
    },
    {
      "anonymous": false,
      "inputs": [
        {
          "indexed": false,
          "internalType": "address",
          "name": "sender",
          "type": "address"
        },
        {
          "indexed": false,
          "internalType": "uint256",
          "name": "tokenId",
          "type": "uint256"
        }
      ],
      "name": "NewDigitalNomadNFTMinted",
      "type": "event"
    },
    {
      "anonymous": false,
      "inputs": [
        {
          "indexed": true,
          "internalType": "address",
          "name": "from",
          "type": "address"
        },
        {
          "indexed": true,
          "internalType": "address",
          "name": "to",
          "type": "address"
        },
        {
          "indexed": true,
          "internalType": "uint256",
          "name": "tokenId",
          "type": "uint256"
        }
      ],
      "name": "Transfer",
      "type": "event"
    },
    {
      "inputs": [
        {
          "internalType": "address",
          "name": "to",
          "type": "address"
        },
        {
          "internalType": "uint256",
          "name": "tokenId",
          "type": "uint256"
        }
      ],
      "name": "approve",
      "outputs": [],
      "stateMutability": "nonpayable",
      "type": "function"
    },
    {
      "inputs": [
        {
          "internalType": "address",
          "name": "owner",
          "type": "address"
        }
      ],
      "name": "balanceOf",
      "outputs": [
        {
          "internalType": "uint256",
          "name": "",
          "type": "uint256"
        }
      ],
      "stateMutability": "view",
      "type": "function"
    },
    {
      "inputs": [
        {
          "internalType": "uint256",
          "name": "tokenId",
          "type": "uint256"
        }
      ],
      "name": "getApproved",
      "outputs": [
        {
          "internalType": "address",
          "name": "",
          "type": "address"
        }
      ],
      "stateMutability": "view",
      "type": "function"
    },
    {
      "inputs": [],
      "name": "getTotalNFTsMintedSoFar",
      "outputs": [
        {
          "internalType": "uint256",
          "name": "",
          "type": "uint256"
        }
      ],
      "stateMutability": "view",
      "type": "function"
    },
    {
      "inputs": [
        {
          "internalType": "address",
          "name": "owner",
          "type": "address"
        },
        {
          "internalType": "address",
          "name": "operator",
          "type": "address"
        }
      ],
      "name": "isApprovedForAll",
      "outputs": [
        {
          "internalType": "bool",
          "name": "",
          "type": "bool"
        }
      ],
      "stateMutability": "view",
      "type": "function"
    },
    {
      "inputs": [],
      "name": "makeADigitalNomadNFT",
      "outputs": [
        {
          "internalType": "string",
          "name": "",
          "type": "string"
        }
      ],
      "stateMutability": "payable",
      "type": "function"
    },
    {
      "inputs": [],
      "name": "name",
      "outputs": [
        {
          "internalType": "string",
          "name": "",
          "type": "string"
        }
      ],
      "stateMutability": "view",
      "type": "function"
    },
    {
      "inputs": [
        {
          "internalType": "uint256",
          "name": "tokenId",
          "type": "uint256"
        }
      ],
      "name": "ownerOf",
      "outputs": [
        {
          "internalType": "address",
          "name": "",
          "type": "address"
        }
      ],
      "stateMutability": "view",
      "type": "function"
    },
    {
      "inputs": [
        {
          "internalType": "address",
          "name": "from",
          "type": "address"
        },
        {
          "internalType": "address",
          "name": "to",
          "type": "address"
        },
        {
          "internalType": "uint256",
          "name": "tokenId",
          "type": "uint256"
        }
      ],
      "name": "safeTransferFrom",
      "outputs": [],
      "stateMutability": "nonpayable",
      "type": "function"
    },
    {
      "inputs": [
        {
          "internalType": "address",
          "name": "from",
          "type": "address"
        },
        {
          "internalType": "address",
          "name": "to",
          "type": "address"
        },
        {
          "internalType": "uint256",
          "name": "tokenId",
          "type": "uint256"
        },
        {
          "internalType": "bytes",
          "name": "data",
          "type": "bytes"
        }
      ],
      "name": "safeTransferFrom",
      "outputs": [],
      "stateMutability": "nonpayable",
      "type": "function"
    },
    {
      "inputs": [
        {
          "internalType": "address",
          "name": "operator",
          "type": "address"
        },
        {
          "internalType": "bool",
          "name": "approved",
          "type": "bool"
        }
      ],
      "name": "setApprovalForAll",
      "outputs": [],
      "stateMutability": "nonpayable",
      "type": "function"
    },
    {
      "inputs": [
        {
          "internalType": "bytes4",
          "name": "interfaceId",
          "type": "bytes4"
        }
      ],
      "name": "supportsInterface",
      "outputs": [
        {
          "internalType": "bool",
          "name": "",
          "type": "bool"
        }
      ],
      "stateMutability": "view",
      "type": "function"
    },
    {
      "inputs": [],
      "name": "symbol",
      "outputs": [
        {
          "internalType": "string",
          "name": "",
          "type": "string"
        }
      ],
      "stateMutability": "view",
      "type": "function"
    },
    {
      "inputs": [
        {
          "internalType": "uint256",
          "name": "tokenId",
          "type": "uint256"
        }
      ],
      "name": "tokenURI",
      "outputs": [
        {
          "internalType": "string",
          "name": "",
          "type": "string"
        }
      ],
      "stateMutability": "view",
      "type": "function"
    },
    {
      "inputs": [
        {
          "internalType": "address",
          "name": "from",
          "type": "address"
        },
        {
          "internalType": "address",
          "name": "to",
          "type": "address"
        },
        {
          "internalType": "uint256",
          "name": "tokenId",
          "type": "uint256"
        }
      ],
      "name": "transferFrom",
      "outputs": [],
      "stateMutability": "nonpayable",
      "type": "function"
    }
  ],
  "bytecode": "0x60806040523480156200001157600080fd5b506040518060400160405280600f81526020017f4469676974616c4e6f4d61644e465400000000000000000000000000000000008152506040518060400160405280600781526020017f44694e6f4d61640000000000000000000000000000000000000000000000000081525081600090816200008f91906200043b565b508060019081620000a191906200043b565b505050620000ef6040518060400160405280601581526020017f2d2d2d2d2d2d2d2d2d2d2d2d2d2d2d2d2d2d2d2d0a0000000000000000000000815250620000f560201b620018661760201c565b620005d5565b62000195816040516024016200010c9190620005b1565b6040516020818303038152906040527f41304fac000000000000000000000000000000000000000000000000000000007bffffffffffffffffffffffffffffffffffffffffffffffffffffffff19166020820180517bffffffffffffffffffffffffffffffffffffffffffffffffffffffff83818316178352505050506200019860201b60201c565b50565b60008151905060006a636f6e736f6c652e6c6f679050602083016000808483855afa5050505050565b600081519050919050565b7f4e487b7100000000000000000000000000000000000000000000000000000000600052604160045260246000fd5b7f4e487b7100000000000000000000000000000000000000000000000000000000600052602260045260246000fd5b600060028204905060018216806200024357607f821691505b602082108103620002595762000258620001fb565b5b50919050565b60008190508160005260206000209050919050565b60006020601f8301049050919050565b600082821b905092915050565b600060088302620002c37fffffffffffffffffffffffffffffffffffffffffffffffffffffffffffffffff8262000284565b620002cf868362000284565b95508019841693508086168417925050509392505050565b6000819050919050565b6000819050919050565b60006200031c620003166200031084620002e7565b620002f1565b620002e7565b9050919050565b6000819050919050565b6200033883620002fb565b62000350620003478262000323565b84845462000291565b825550505050565b600090565b6200036762000358565b620003748184846200032d565b505050565b5b818110156200039c57620003906000826200035d565b6001810190506200037a565b5050565b601f821115620003eb57620003b5816200025f565b620003c08462000274565b81016020851015620003d0578190505b620003e8620003df8562000274565b83018262000379565b50505b505050565b600082821c905092915050565b60006200041060001984600802620003f0565b1980831691505092915050565b60006200042b8383620003fd565b9150826002028217905092915050565b6200044682620001c1565b67ffffffffffffffff811115620004625762000461620001cc565b5b6200046e82546200022a565b6200047b828285620003a0565b600060209050601f831160018114620004b357600084156200049e578287015190505b620004aa85826200041d565b8655506200051a565b601f198416620004c3866200025f565b60005b82811015620004ed57848901518255600182019150602085019450602081019050620004c6565b868310156200050d578489015162000509601f891682620003fd565b8355505b6001600288020188555050505b505050505050565b600082825260208201905092915050565b60005b838110156200055357808201518184015260208101905062000536565b60008484015250505050565b6000601f19601f8301169050919050565b60006200057d82620001c1565b62000589818562000522565b93506200059b81856020860162000533565b620005a6816200055f565b840191505092915050565b60006020820190508181036000830152620005cd818462000570565b905092915050565b6142ce80620005e56000396000f3fe6080604052600436106100e85760003560e01c80636352211e1161008a578063b88d4fde11610059578063b88d4fde14610306578063c87b56dd1461032f578063dc48679a1461036c578063e985e9c51461038a576100e8565b80636352211e1461023857806370a082311461027557806395d89b41146102b2578063a22cb465146102dd576100e8565b8063081812fc116100c6578063081812fc14610180578063095ea7b3146101bd57806323b872dd146101e657806342842e0e1461020f576100e8565b806301ffc9a7146100ed578063060475901461012a57806306fdde0314610155575b600080fd5b3480156100f957600080fd5b50610114600480360381019061010f9190612bb1565b6103c7565b6040516101219190612bf9565b60405180910390f35b34801561013657600080fd5b5061013f6104a9565b60405161014c9190612c2d565b60405180910390f35b34801561016157600080fd5b5061016a6104ba565b6040516101779190612cd8565b60405180910390f35b34801561018c57600080fd5b506101a760048036038101906101a29190612d26565b61054c565b6040516101b49190612d94565b60405180910390f35b3480156101c957600080fd5b506101e460048036038101906101df9190612ddb565b610592565b005b3480156101f257600080fd5b5061020d60048036038101906102089190612e1b565b6106a9565b005b34801561021b57600080fd5b5061023660048036038101906102319190612e1b565b610709565b005b34801561024457600080fd5b5061025f600480360381019061025a9190612d26565b610729565b60405161026c9190612d94565b60405180910390f35b34801561028157600080fd5b5061029c60048036038101906102979190612e6e565b6107af565b6040516102a99190612c2d565b60405180910390f35b3480156102be57600080fd5b506102c7610866565b6040516102d49190612cd8565b60405180910390f35b3480156102e957600080fd5b5061030460048036038101906102ff9190612ec7565b6108f8565b005b34801561031257600080fd5b5061032d6004803603810190610328919061303c565b61090e565b005b34801561033b57600080fd5b5061035660048036038101906103519190612d26565b610970565b6040516103639190612cd8565b60405180910390f35b610374610a82565b6040516103819190612cd8565b60405180910390f35b34801561039657600080fd5b506103b160048036038101906103ac91906130bf565b6117d2565b6040516103be9190612bf9565b60405180910390f35b60007f80ac58cd000000000000000000000000000000000000000000000000000000007bffffffffffffffffffffffffffffffffffffffffffffffffffffffff1916827bffffffffffffffffffffffffffffffffffffffffffffffffffffffff1916148061049257507f5b5e139f000000000000000000000000000000000000000000000000000000007bffffffffffffffffffffffffffffffffffffffffffffffffffffffff1916827bffffffffffffffffffffffffffffffffffffffffffffffffffffffff1916145b806104a257506104a1826118ff565b5b9050919050565b60006104b56007611969565b905090565b6060600080546104c99061312e565b80601f01602080910402602001604051908101604052809291908181526020018280546104f59061312e565b80156105425780601f1061051757610100808354040283529160200191610542565b820191906000526020600020905b81548152906001019060200180831161052557829003601f168201915b5050505050905090565b600061055782611977565b6004600083815260200190815260200160002060009054906101000a900473ffffffffffffffffffffffffffffffffffffffff169050919050565b600061059d82610729565b90508073ffffffffffffffffffffffffffffffffffffffff168373ffffffffffffffffffffffffffffffffffffffff160361060d576040517f08c379a0000000000000000000000000000000000000000000000000000000008152600401610604906131d1565b60405180910390fd5b8073ffffffffffffffffffffffffffffffffffffffff1661062c6119c2565b73ffffffffffffffffffffffffffffffffffffffff16148061065b575061065a816106556119c2565b6117d2565b5b61069a576040517f08c379a000000000000000000000000000000000000000000000000000000000815260040161069190613263565b60405180910390fd5b6106a483836119ca565b505050565b6106ba6106b46119c2565b82611a83565b6106f9576040517f08c379a00000000000000000000000000000000000000000000000000000000081526004016106f0906132f5565b60405180910390fd5b610704838383611b18565b505050565b6107248383836040518060200160405280600081525061090e565b505050565b60008061073583611e11565b9050600073ffffffffffffffffffffffffffffffffffffffff168173ffffffffffffffffffffffffffffffffffffffff16036107a6576040517f08c379a000000000000000000000000000000000000000000000000000000000815260040161079d90613361565b60405180910390fd5b80915050919050565b60008073ffffffffffffffffffffffffffffffffffffffff168273ffffffffffffffffffffffffffffffffffffffff160361081f576040517f08c379a0000000000000000000000000000000000000000000000000000000008152600401610816906133f3565b60405180910390fd5b600360008373ffffffffffffffffffffffffffffffffffffffff1673ffffffffffffffffffffffffffffffffffffffff168152602001908152602001600020549050919050565b6060600180546108759061312e565b80601f01602080910402602001604051908101604052809291908181526020018280546108a19061312e565b80156108ee5780601f106108c3576101008083540402835291602001916108ee565b820191906000526020600020905b8154815290600101906020018083116108d157829003601f168201915b5050505050905090565b61090a6109036119c2565b8383611e4e565b5050565b61091f6109196119c2565b83611a83565b61095e576040517f08c379a0000000000000000000000000000000000000000000000000000000008152600401610955906132f5565b60405180910390fd5b61096a84848484611fba565b50505050565b606061097b82611977565b600060066000848152602001908152602001600020805461099b9061312e565b80601f01602080910402602001604051908101604052809291908181526020018280546109c79061312e565b8015610a145780601f106109e957610100808354040283529160200191610a14565b820191906000526020600020905b8154815290600101906020018083116109f757829003601f168201915b505050505090506000610a25612016565b90506000815103610a3a578192505050610a7d565b600082511115610a6f578082604051602001610a5792919061344f565b60405160208183030381529060405292505050610a7d565b610a788461202d565b925050505b919050565b6060600060329050806007600001541115610ad2576040517f08c379a0000000000000000000000000000000000000000000000000000000008152600401610ac9906134bf565b60405180910390fd5b60006040518061018001604052806040518060400160405280600581526020017f4d6f6e657900000000000000000000000000000000000000000000000000000081525081526020016040518060400160405280600781526020017f46696e616e63650000000000000000000000000000000000000000000000000081525081526020016040518060400160405280600481526020017f4d756c610000000000000000000000000000000000000000000000000000000081525081526020016040518060400160405280600481526020017f526963680000000000000000000000000000000000000000000000000000000081525081526020016040518060400160405280600781526020017f5765616c7468790000000000000000000000000000000000000000000000000081525081526020016040518060400160405280600681526020017f4c6f61646564000000000000000000000000000000000000000000000000000081525081526020016040518060400160405280600781526020017f5370656e6465720000000000000000000000000000000000000000000000000081525081526020016040518060400160405280600b81526020017f4d696c6c696f6e6169726500000000000000000000000000000000000000000081525081526020016040518060400160405280600b81526020017f42696c6c696f6e6169726500000000000000000000000000000000000000000081525081526020016040518060400160405280600c81526020017f5472696c6c696f6e61697265000000000000000000000000000000000000000081525081526020016040518060400160405280600881526020017f496e766573746f7200000000000000000000000000000000000000000000000081525081526020016040518060400160405280600581526020017f5768616c6500000000000000000000000000000000000000000000000000000081525081525090506000604051806101a001604052806040518060400160405280600781526020017f4a616d616963610000000000000000000000000000000000000000000000000081525081526020016040518060400160405280600681526020017f486177616969000000000000000000000000000000000000000000000000000081525081526020016040518060400160405280600581526020017f456779707400000000000000000000000000000000000000000000000000000081525081526020016040518060400160405280600681526020017f4d657869636f000000000000000000000000000000000000000000000000000081525081526020016040518060400160405280600881526020017f506f72747567616c00000000000000000000000000000000000000000000000081525081526020016040518060400160405280600481526020017f526f6d650000000000000000000000000000000000000000000000000000000081525081526020016040518060400160405280600581526020017f506172697300000000000000000000000000000000000000000000000000000081525081526020016040518060400160405280600781526020017f486f6c6c616e640000000000000000000000000000000000000000000000000081525081526020016040518060400160405280600681526020017f4c6f6e646f6e000000000000000000000000000000000000000000000000000081525081526020016040518060400160405280600581526020017f4d69616d6900000000000000000000000000000000000000000000000000000081525081526020016040518060400160405280600581526020017f447562616900000000000000000000000000000000000000000000000000000081525081526020016040518060400160405280600881526020017f4d616c646976657300000000000000000000000000000000000000000000000081525081526020016040518060400160405280600681526020017f4c6f6e646f6e0000000000000000000000000000000000000000000000000000815250815250905060006040518061018001604052806040518060400160405280600681526020017f4561726e6572000000000000000000000000000000000000000000000000000081525081526020016040518060400160405280600981526020017f446576656c6f706572000000000000000000000000000000000000000000000081525081526020016040518060400160405280600781526020017f4c6561726e65720000000000000000000000000000000000000000000000000081525081526020016040518060400160405280600681526020017f476976696e67000000000000000000000000000000000000000000000000000081525081526020016040518060400160405280600c81526020017f456e7472657072656e657572000000000000000000000000000000000000000081525081526020016040518060400160405280600781526020017f487573746c65720000000000000000000000000000000000000000000000000081525081526020016040518060400160405280600481526020017f426f73730000000000000000000000000000000000000000000000000000000081525081526020016040518060400160405280600681526020017f48656c706572000000000000000000000000000000000000000000000000000081525081526020016040518060400160405280600981526020017f566973696f6e617279000000000000000000000000000000000000000000000081525081526020016040518060400160405280600581526020017f4e6f6d616400000000000000000000000000000000000000000000000000000081525081526020016040518060400160405280600881526020017f50726f766964657200000000000000000000000000000000000000000000000081525081526020016040518060400160405280600581526020017f536861726b00000000000000000000000000000000000000000000000000000081525081525090506000600c424460405160200161139a929190613500565b6040516020818303038152906040528051906020012060001c6113bd919061355b565b90506000600d42446040516020016113d6929190613500565b6040516020818303038152906040528051906020012060001c6113f9919061355b565b90506000600c4244604051602001611412929190613500565b6040516020818303038152906040528051906020012060001c611435919061355b565b905060008684600c811061144c5761144b61358c565b5b6020020151905060008684600d81106114685761146761358c565b5b6020020151905060008684600c81106114845761148361358c565b5b6020020151905060008383836040516020016114a2939291906135bb565b6040516020818303038152906040529050600060405180610160016040528061012f81526020016140fa61012f9139826040518060400160405280600d81526020017f3c2f746578743e3c2f7376673e0000000000000000000000000000000000000081525060405160200161151a939291906135bb565b6040516020818303038152906040529050600061155f8361153a84612095565b60405160200161154b9291906137b4565b604051602081830303815290604052612095565b90506000816040516020016115749190613845565b604051602081830303815290604052905060006115916007611969565b905061159d600761222c565b6115a73382612242565b6115b18183612260565b7f63c431b3f6dcd1b10822c44fa6863208fa3a4ee2cf070da55d359f63a86b112533826040516115e2929190613867565b60405180910390a161160b6040518060600160405280603481526020016140c660349139611866565b6116496040518060400160405280601581526020017f0a2d2d2d2d2d2d2d2d2d2d2d2d2d2d2d2d2d2d2d2d0000000000000000000000815250611866565b61165285611866565b6116906040518060400160405280601581526020017f2d2d2d2d2d2d2d2d2d2d2d2d2d2d2d2d2d2d2d2d0a0000000000000000000000815250611866565b6116b36040518060600160405280603081526020016142696030913982336122cd565b6116f16040518060400160405280600b81526020017f0a66696e616c5376673a20000000000000000000000000000000000000000000815250611866565b6116fa84611866565b6117386040518060400160405280601581526020017f0a2d2d2d2d2d2d2d2d2d2d2d2d2d2d2d2d2d2d2d2d0000000000000000000000815250611866565b6117766040518060400160405280600e81526020017f66696e616c546f6b656e5572693a000000000000000000000000000000000000815250611866565b61177f82611866565b6117bd6040518060400160405280601581526020017f2d2d2d2d2d2d2d2d2d2d2d2d2d2d2d2d2d2d2d2d0a0000000000000000000000815250611866565b849f5050505050505050505050505050505090565b6000600560008473ffffffffffffffffffffffffffffffffffffffff1673ffffffffffffffffffffffffffffffffffffffff16815260200190815260200160002060008373ffffffffffffffffffffffffffffffffffffffff1673ffffffffffffffffffffffffffffffffffffffff16815260200190815260200160002060009054906101000a900460ff16905092915050565b6118fc8160405160240161187a9190612cd8565b6040516020818303038152906040527f41304fac000000000000000000000000000000000000000000000000000000007bffffffffffffffffffffffffffffffffffffffffffffffffffffffff19166020820180517bffffffffffffffffffffffffffffffffffffffffffffffffffffffff838183161783525050505061236c565b50565b60007f01ffc9a7000000000000000000000000000000000000000000000000000000007bffffffffffffffffffffffffffffffffffffffffffffffffffffffff1916827bffffffffffffffffffffffffffffffffffffffffffffffffffffffff1916149050919050565b600081600001549050919050565b61198081612395565b6119bf576040517f08c379a00000000000000000000000000000000000000000000000000000000081526004016119b690613361565b60405180910390fd5b50565b600033905090565b816004600083815260200190815260200160002060006101000a81548173ffffffffffffffffffffffffffffffffffffffff021916908373ffffffffffffffffffffffffffffffffffffffff160217905550808273ffffffffffffffffffffffffffffffffffffffff16611a3d83610729565b73ffffffffffffffffffffffffffffffffffffffff167f8c5be1e5ebec7d5bd14f71427d1e84f3dd0314c0f7b2291e5b200ac8c7c3b92560405160405180910390a45050565b600080611a8f83610729565b90508073ffffffffffffffffffffffffffffffffffffffff168473ffffffffffffffffffffffffffffffffffffffff161480611ad15750611ad081856117d2565b5b80611b0f57508373ffffffffffffffffffffffffffffffffffffffff16611af78461054c565b73ffffffffffffffffffffffffffffffffffffffff16145b91505092915050565b8273ffffffffffffffffffffffffffffffffffffffff16611b3882610729565b73ffffffffffffffffffffffffffffffffffffffff1614611b8e576040517f08c379a0000000000000000000000000000000000000000000000000000000008152600401611b8590613902565b60405180910390fd5b600073ffffffffffffffffffffffffffffffffffffffff168273ffffffffffffffffffffffffffffffffffffffff1603611bfd576040517f08c379a0000000000000000000000000000000000000000000000000000000008152600401611bf490613994565b60405180910390fd5b611c0a83838360016123d6565b8273ffffffffffffffffffffffffffffffffffffffff16611c2a82610729565b73ffffffffffffffffffffffffffffffffffffffff1614611c80576040517f08c379a0000000000000000000000000000000000000000000000000000000008152600401611c7790613902565b60405180910390fd5b6004600082815260200190815260200160002060006101000a81549073ffffffffffffffffffffffffffffffffffffffff02191690556001600360008573ffffffffffffffffffffffffffffffffffffffff1673ffffffffffffffffffffffffffffffffffffffff168152602001908152602001600020600082825403925050819055506001600360008473ffffffffffffffffffffffffffffffffffffffff1673ffffffffffffffffffffffffffffffffffffffff16815260200190815260200160002060008282540192505081905550816002600083815260200190815260200160002060006101000a81548173ffffffffffffffffffffffffffffffffffffffff021916908373ffffffffffffffffffffffffffffffffffffffff160217905550808273ffffffffffffffffffffffffffffffffffffffff168473ffffffffffffffffffffffffffffffffffffffff167fddf252ad1be2c89b69c2b068fc378daa952ba7f163c4a11628f55a4df523b3ef60405160405180910390a4611e0c83838360016124fc565b505050565b60006002600083815260200190815260200160002060009054906101000a900473ffffffffffffffffffffffffffffffffffffffff169050919050565b8173ffffffffffffffffffffffffffffffffffffffff168373ffffffffffffffffffffffffffffffffffffffff1603611ebc576040517f08c379a0000000000000000000000000000000000000000000000000000000008152600401611eb390613a00565b60405180910390fd5b80600560008573ffffffffffffffffffffffffffffffffffffffff1673ffffffffffffffffffffffffffffffffffffffff16815260200190815260200160002060008473ffffffffffffffffffffffffffffffffffffffff1673ffffffffffffffffffffffffffffffffffffffff16815260200190815260200160002060006101000a81548160ff0219169083151502179055508173ffffffffffffffffffffffffffffffffffffffff168373ffffffffffffffffffffffffffffffffffffffff167f17307eab39ab6107e8899845ad3d59bd9653f200f220920489ca2b5937696c3183604051611fad9190612bf9565b60405180910390a3505050565b611fc5848484611b18565b611fd184848484612502565b612010576040517f08c379a000000000000000000000000000000000000000000000000000000000815260040161200790613a92565b60405180910390fd5b50505050565b606060405180602001604052806000815250905090565b606061203882611977565b6000612042612016565b90506000815111612062576040518060200160405280600081525061208d565b8061206c84612689565b60405160200161207d92919061344f565b6040516020818303038152906040525b915050919050565b6060600082519050600081036120bd5760405180602001604052806000815250915050612227565b600060036002836120ce9190613ae1565b6120d89190613b15565b60046120e49190613b46565b905060006020826120f59190613ae1565b67ffffffffffffffff81111561210e5761210d612f11565b5b6040519080825280601f01601f1916602001820160405280156121405781602001600182028036833780820191505090505b5090506000604051806060016040528060408152602001614229604091399050600181016020830160005b868110156121e45760038101905062ffffff818a015116603f8160121c168401518060081b905060ff603f83600c1c1686015116810190508060081b905060ff603f8360061c1686015116810190508060081b905060ff603f831686015116810190508060e01b9050808452600484019350505061216b565b5060038606600181146121fe576002811461220e57612219565b613d3d60f01b6002830352612219565b603d60f81b60018303525b508484525050819450505050505b919050565b6001816000016000828254019250508190555050565b61225c828260405180602001604052806000815250612757565b5050565b61226982612395565b6122a8576040517f08c379a000000000000000000000000000000000000000000000000000000000815260040161229f90613bfa565b60405180910390fd5b806006600084815260200190815260200160002090816122c89190613dc6565b505050565b6123678383836040516024016122e593929190613e98565b6040516020818303038152906040527f1c7ec448000000000000000000000000000000000000000000000000000000007bffffffffffffffffffffffffffffffffffffffffffffffffffffffff19166020820180517bffffffffffffffffffffffffffffffffffffffffffffffffffffffff838183161783525050505061236c565b505050565b60008151905060006a636f6e736f6c652e6c6f679050602083016000808483855afa5050505050565b60008073ffffffffffffffffffffffffffffffffffffffff166123b783611e11565b73ffffffffffffffffffffffffffffffffffffffff1614159050919050565b60018111156124f657600073ffffffffffffffffffffffffffffffffffffffff168473ffffffffffffffffffffffffffffffffffffffff161461246a5780600360008673ffffffffffffffffffffffffffffffffffffffff1673ffffffffffffffffffffffffffffffffffffffff16815260200190815260200160002060008282546124629190613ed6565b925050819055505b600073ffffffffffffffffffffffffffffffffffffffff168373ffffffffffffffffffffffffffffffffffffffff16146124f55780600360008573ffffffffffffffffffffffffffffffffffffffff1673ffffffffffffffffffffffffffffffffffffffff16815260200190815260200160002060008282546124ed9190613ae1565b925050819055505b5b50505050565b50505050565b60006125238473ffffffffffffffffffffffffffffffffffffffff166127b2565b1561267c578373ffffffffffffffffffffffffffffffffffffffff1663150b7a0261254c6119c2565b8786866040518563ffffffff1660e01b815260040161256e9493929190613f5f565b6020604051808303816000875af19250505080156125aa57506040513d601f19601f820116820180604052508101906125a79190613fc0565b60015b61262c573d80600081146125da576040519150601f19603f3d011682016040523d82523d6000602084013e6125df565b606091505b506000815103612624576040517f08c379a000000000000000000000000000000000000000000000000000000000815260040161261b90613a92565b60405180910390fd5b805181602001fd5b63150b7a0260e01b7bffffffffffffffffffffffffffffffffffffffffffffffffffffffff1916817bffffffffffffffffffffffffffffffffffffffffffffffffffffffff191614915050612681565b600190505b949350505050565b606060006001612698846127d5565b01905060008167ffffffffffffffff8111156126b7576126b6612f11565b5b6040519080825280601f01601f1916602001820160405280156126e95781602001600182028036833780820191505090505b509050600082602001820190505b60011561274c578080600190039150507f3031323334353637383961626364656600000000000000000000000000000000600a86061a8153600a85816127405761273f61352c565b5b049450600085036126f7575b819350505050919050565b6127618383612928565b61276e6000848484612502565b6127ad576040517f08c379a00000000000000000000000000000000000000000000000000000000081526004016127a490613a92565b60405180910390fd5b505050565b6000808273ffffffffffffffffffffffffffffffffffffffff163b119050919050565b600080600090507a184f03e93ff9f4daa797ed6e38ed64bf6a1f0100000000000000008310612833577a184f03e93ff9f4daa797ed6e38ed64bf6a1f01000000000000000083816128295761282861352c565b5b0492506040810190505b6d04ee2d6d415b85acef81000000008310612870576d04ee2d6d415b85acef810000000083816128665761286561352c565b5b0492506020810190505b662386f26fc10000831061289f57662386f26fc1000083816128955761289461352c565b5b0492506010810190505b6305f5e10083106128c8576305f5e10083816128be576128bd61352c565b5b0492506008810190505b61271083106128ed5761271083816128e3576128e261352c565b5b0492506004810190505b6064831061291057606483816129065761290561352c565b5b0492506002810190505b600a831061291f576001810190505b80915050919050565b600073ffffffffffffffffffffffffffffffffffffffff168273ffffffffffffffffffffffffffffffffffffffff1603612997576040517f08c379a000000000000000000000000000000000000000000000000000000000815260040161298e90614039565b60405180910390fd5b6129a081612395565b156129e0576040517f08c379a00000000000000000000000000000000000000000000000000000000081526004016129d7906140a5565b60405180910390fd5b6129ee6000838360016123d6565b6129f781612395565b15612a37576040517f08c379a0000000000000000000000000000000000000000000000000000000008152600401612a2e906140a5565b60405180910390fd5b6001600360008473ffffffffffffffffffffffffffffffffffffffff1673ffffffffffffffffffffffffffffffffffffffff16815260200190815260200160002060008282540192505081905550816002600083815260200190815260200160002060006101000a81548173ffffffffffffffffffffffffffffffffffffffff021916908373ffffffffffffffffffffffffffffffffffffffff160217905550808273ffffffffffffffffffffffffffffffffffffffff16600073ffffffffffffffffffffffffffffffffffffffff167fddf252ad1be2c89b69c2b068fc378daa952ba7f163c4a11628f55a4df523b3ef60405160405180910390a4612b416000838360016124fc565b5050565b6000604051905090565b600080fd5b600080fd5b60007fffffffff0000000000000000000000000000000000000000000000000000000082169050919050565b612b8e81612b59565b8114612b9957600080fd5b50565b600081359050612bab81612b85565b92915050565b600060208284031215612bc757612bc6612b4f565b5b6000612bd584828501612b9c565b91505092915050565b60008115159050919050565b612bf381612bde565b82525050565b6000602082019050612c0e6000830184612bea565b92915050565b6000819050919050565b612c2781612c14565b82525050565b6000602082019050612c426000830184612c1e565b92915050565b600081519050919050565b600082825260208201905092915050565b60005b83811015612c82578082015181840152602081019050612c67565b60008484015250505050565b6000601f19601f8301169050919050565b6000612caa82612c48565b612cb48185612c53565b9350612cc4818560208601612c64565b612ccd81612c8e565b840191505092915050565b60006020820190508181036000830152612cf28184612c9f565b905092915050565b612d0381612c14565b8114612d0e57600080fd5b50565b600081359050612d2081612cfa565b92915050565b600060208284031215612d3c57612d3b612b4f565b5b6000612d4a84828501612d11565b91505092915050565b600073ffffffffffffffffffffffffffffffffffffffff82169050919050565b6000612d7e82612d53565b9050919050565b612d8e81612d73565b82525050565b6000602082019050612da96000830184612d85565b92915050565b612db881612d73565b8114612dc357600080fd5b50565b600081359050612dd581612daf565b92915050565b60008060408385031215612df257612df1612b4f565b5b6000612e0085828601612dc6565b9250506020612e1185828601612d11565b9150509250929050565b600080600060608486031215612e3457612e33612b4f565b5b6000612e4286828701612dc6565b9350506020612e5386828701612dc6565b9250506040612e6486828701612d11565b9150509250925092565b600060208284031215612e8457612e83612b4f565b5b6000612e9284828501612dc6565b91505092915050565b612ea481612bde565b8114612eaf57600080fd5b50565b600081359050612ec181612e9b565b92915050565b60008060408385031215612ede57612edd612b4f565b5b6000612eec85828601612dc6565b9250506020612efd85828601612eb2565b9150509250929050565b600080fd5b600080fd5b7f4e487b7100000000000000000000000000000000000000000000000000000000600052604160045260246000fd5b612f4982612c8e565b810181811067ffffffffffffffff82111715612f6857612f67612f11565b5b80604052505050565b6000612f7b612b45565b9050612f878282612f40565b919050565b600067ffffffffffffffff821115612fa757612fa6612f11565b5b612fb082612c8e565b9050602081019050919050565b82818337600083830152505050565b6000612fdf612fda84612f8c565b612f71565b905082815260208101848484011115612ffb57612ffa612f0c565b5b613006848285612fbd565b509392505050565b600082601f83011261302357613022612f07565b5b8135613033848260208601612fcc565b91505092915050565b6000806000806080858703121561305657613055612b4f565b5b600061306487828801612dc6565b945050602061307587828801612dc6565b935050604061308687828801612d11565b925050606085013567ffffffffffffffff8111156130a7576130a6612b54565b5b6130b38782880161300e565b91505092959194509250565b600080604083850312156130d6576130d5612b4f565b5b60006130e485828601612dc6565b92505060206130f585828601612dc6565b9150509250929050565b7f4e487b7100000000000000000000000000000000000000000000000000000000600052602260045260246000fd5b6000600282049050600182168061314657607f821691505b602082108103613159576131586130ff565b5b50919050565b7f4552433732313a20617070726f76616c20746f2063757272656e74206f776e6560008201527f7200000000000000000000000000000000000000000000000000000000000000602082015250565b60006131bb602183612c53565b91506131c68261315f565b604082019050919050565b600060208201905081810360008301526131ea816131ae565b9050919050565b7f4552433732313a20617070726f76652063616c6c6572206973206e6f7420746f60008201527f6b656e206f776e6572206f7220617070726f76656420666f7220616c6c000000602082015250565b600061324d603d83612c53565b9150613258826131f1565b604082019050919050565b6000602082019050818103600083015261327c81613240565b9050919050565b7f4552433732313a2063616c6c6572206973206e6f7420746f6b656e206f776e6560008201527f72206f7220617070726f76656400000000000000000000000000000000000000602082015250565b60006132df602d83612c53565b91506132ea82613283565b604082019050919050565b6000602082019050818103600083015261330e816132d2565b9050919050565b7f4552433732313a20696e76616c696420746f6b656e2049440000000000000000600082015250565b600061334b601883612c53565b915061335682613315565b602082019050919050565b6000602082019050818103600083015261337a8161333e565b9050919050565b7f4552433732313a2061646472657373207a65726f206973206e6f74206120766160008201527f6c6964206f776e65720000000000000000000000000000000000000000000000602082015250565b60006133dd602983612c53565b91506133e882613381565b604082019050919050565b6000602082019050818103600083015261340c816133d0565b9050919050565b600081905092915050565b600061342982612c48565b6134338185613413565b9350613443818560208601612c64565b80840191505092915050565b600061345b828561341e565b9150613467828461341e565b91508190509392505050565b7f4d6178696d756d206e756d626572206f66204e46547320726561636865640000600082015250565b60006134a9601e83612c53565b91506134b482613473565b602082019050919050565b600060208201905081810360008301526134d88161349c565b9050919050565b6000819050919050565b6134fa6134f582612c14565b6134df565b82525050565b600061350c82856134e9565b60208201915061351c82846134e9565b6020820191508190509392505050565b7f4e487b7100000000000000000000000000000000000000000000000000000000600052601260045260246000fd5b600061356682612c14565b915061357183612c14565b9250826135815761358061352c565b5b828206905092915050565b7f4e487b7100000000000000000000000000000000000000000000000000000000600052603260045260246000fd5b60006135c7828661341e565b91506135d3828561341e565b91506135df828461341e565b9150819050949350505050565b7f7b226e616d65223a202200000000000000000000000000000000000000000000600082015250565b6000613622600a83613413565b915061362d826135ec565b600a82019050919050565b7f222c20226465736372697074696f6e223a2022412064697374696e637420736560008201527f74206f662070726f66657373696f6e616c207370656369616c697374732c206660208201527f6f7277617264207468696e6b6572732c20756e646572646f67732c20616e642060408201527f74686520776f726c6473206d6f73742070657273697374656e742c207374726f60608201527f6e672d77696c6c656420696e646976696475616c732e2028474e46696e64657260808201527f29222c2022696d616765223a2022646174613a696d6167652f7376672b786d6c60a08201527f3b6261736536342c00000000000000000000000000000000000000000000000060c082015250565b600061375260c883613413565b915061375d82613638565b60c882019050919050565b7f227d000000000000000000000000000000000000000000000000000000000000600082015250565b600061379e600283613413565b91506137a982613768565b600282019050919050565b60006137bf82613615565b91506137cb828561341e565b91506137d682613745565b91506137e2828461341e565b91506137ed82613791565b91508190509392505050565b7f646174613a6170706c69636174696f6e2f6a736f6e3b6261736536342c000000600082015250565b600061382f601d83613413565b915061383a826137f9565b601d82019050919050565b600061385082613822565b915061385c828461341e565b915081905092915050565b600060408201905061387c6000830185612d85565b6138896020830184612c1e565b9392505050565b7f4552433732313a207472616e736665722066726f6d20696e636f72726563742060008201527f6f776e6572000000000000000000000000000000000000000000000000000000602082015250565b60006138ec602583612c53565b91506138f782613890565b604082019050919050565b6000602082019050818103600083015261391b816138df565b9050919050565b7f4552433732313a207472616e7366657220746f20746865207a65726f2061646460008201527f7265737300000000000000000000000000000000000000000000000000000000602082015250565b600061397e602483612c53565b915061398982613922565b604082019050919050565b600060208201905081810360008301526139ad81613971565b9050919050565b7f4552433732313a20617070726f766520746f2063616c6c657200000000000000600082015250565b60006139ea601983612c53565b91506139f5826139b4565b602082019050919050565b60006020820190508181036000830152613a19816139dd565b9050919050565b7f4552433732313a207472616e7366657220746f206e6f6e20455243373231526560008201527f63656976657220696d706c656d656e7465720000000000000000000000000000602082015250565b6000613a7c603283612c53565b9150613a8782613a20565b604082019050919050565b60006020820190508181036000830152613aab81613a6f565b9050919050565b7f4e487b7100000000000000000000000000000000000000000000000000000000600052601160045260246000fd5b6000613aec82612c14565b9150613af783612c14565b9250828201905080821115613b0f57613b0e613ab2565b5b92915050565b6000613b2082612c14565b9150613b2b83612c14565b925082613b3b57613b3a61352c565b5b828204905092915050565b6000613b5182612c14565b9150613b5c83612c14565b9250828202613b6a81612c14565b91508282048414831517613b8157613b80613ab2565b5b5092915050565b7f45524337323155524953746f726167653a2055524920736574206f66206e6f6e60008201527f6578697374656e7420746f6b656e000000000000000000000000000000000000602082015250565b6000613be4602e83612c53565b9150613bef82613b88565b604082019050919050565b60006020820190508181036000830152613c1381613bd7565b9050919050565b60008190508160005260206000209050919050565b60006020601f8301049050919050565b600082821b905092915050565b600060088302613c7c7fffffffffffffffffffffffffffffffffffffffffffffffffffffffffffffffff82613c3f565b613c868683613c3f565b95508019841693508086168417925050509392505050565b6000819050919050565b6000613cc3613cbe613cb984612c14565b613c9e565b612c14565b9050919050565b6000819050919050565b613cdd83613ca8565b613cf1613ce982613cca565b848454613c4c565b825550505050565b600090565b613d06613cf9565b613d11818484613cd4565b505050565b5b81811015613d3557613d2a600082613cfe565b600181019050613d17565b5050565b601f821115613d7a57613d4b81613c1a565b613d5484613c2f565b81016020851015613d63578190505b613d77613d6f85613c2f565b830182613d16565b50505b505050565b600082821c905092915050565b6000613d9d60001984600802613d7f565b1980831691505092915050565b6000613db68383613d8c565b9150826002028217905092915050565b613dcf82612c48565b67ffffffffffffffff811115613de857613de7612f11565b5b613df2825461312e565b613dfd828285613d39565b600060209050601f831160018114613e305760008415613e1e578287015190505b613e288582613daa565b865550613e90565b601f198416613e3e86613c1a565b60005b82811015613e6657848901518255600182019150602085019450602081019050613e41565b86831015613e835784890151613e7f601f891682613d8c565b8355505b6001600288020188555050505b505050505050565b60006060820190508181036000830152613eb28186612c9f565b9050613ec16020830185612c1e565b613ece6040830184612d85565b949350505050565b6000613ee182612c14565b9150613eec83612c14565b9250828203905081811115613f0457613f03613ab2565b5b92915050565b600081519050919050565b600082825260208201905092915050565b6000613f3182613f0a565b613f3b8185613f15565b9350613f4b818560208601612c64565b613f5481612c8e565b840191505092915050565b6000608082019050613f746000830187612d85565b613f816020830186612d85565b613f8e6040830185612c1e565b8181036060830152613fa08184613f26565b905095945050505050565b600081519050613fba81612b85565b92915050565b600060208284031215613fd657613fd5612b4f565b5b6000613fe484828501613fab565b91505092915050565b7f4552433732313a206d696e7420746f20746865207a65726f2061646472657373600082015250565b6000614023602083612c53565b915061402e82613fed565b602082019050919050565b6000602082019050818103600083015261405281614016565b9050919050565b7f4552433732313a20746f6b656e20616c7265616479206d696e74656400000000600082015250565b600061408f601c83612c53565b915061409a82614059565b602082019050919050565b600060208201905081810360008301526140be81614082565b905091905056fe434f4e47524154554c4154494f4e5320486f6c6465722c20796f7572206f6666696369616c204e4654207469746c652069733a203c73766720786d6c6e733d27687474703a2f2f7777772e77332e6f72672f323030302f73766727207072657365727665417370656374526174696f3d27784d696e594d696e206d656574272076696577426f783d273020302033353020333530273e3c7374796c653e2e62617365207b2066696c6c3a2077686974653b20666f6e742d66616d696c793a2073657269663b20666f6e742d73697a653a20313470783b207d3c2f7374796c653e3c726563742077696474683d273130302527206865696768743d2731303025272066696c6c3d27626c61636b27202f3e3c7465787420783d273530252720793d273530252720636c6173733d27626173652720646f6d696e616e742d626173656c696e653d276d6964646c652720746578742d616e63686f723d276d6964646c65273e4142434445464748494a4b4c4d4e4f505152535455565758595a6162636465666768696a6b6c6d6e6f707172737475767778797a303132333435363738392b2f41204469676974616c4e6f4d61644e465420772f20494420257320686173206265656e206d696e74656420746f202573a2646970667358221220fd576e6ea58eabacf8d0fceb71ee79d485f1465ee824e3963e3784126f0a231164736f6c63430008110033",
  "linkReferences": {},
  "deployedLinkReferences": {}
}